{
  "contractName": "IAmRussiaHacker",
  "abi": [
    {
      "inputs": [],
      "stateMutability": "nonpayable",
      "type": "constructor"
    },
    {
      "anonymous": false,
      "inputs": [
        {
          "indexed": true,
          "internalType": "address",
          "name": "owner",
          "type": "address"
        },
        {
          "indexed": true,
          "internalType": "address",
          "name": "approved",
          "type": "address"
        },
        {
          "indexed": true,
          "internalType": "uint256",
          "name": "tokenId",
          "type": "uint256"
        }
      ],
      "name": "Approval",
      "type": "event"
    },
    {
      "anonymous": false,
      "inputs": [
        {
          "indexed": true,
          "internalType": "address",
          "name": "owner",
          "type": "address"
        },
        {
          "indexed": true,
          "internalType": "address",
          "name": "operator",
          "type": "address"
        },
        {
          "indexed": false,
          "internalType": "bool",
          "name": "approved",
          "type": "bool"
        }
      ],
      "name": "ApprovalForAll",
      "type": "event"
    },
    {
      "anonymous": false,
      "inputs": [
        {
          "indexed": true,
          "internalType": "address",
          "name": "from",
          "type": "address"
        },
        {
          "indexed": true,
          "internalType": "address",
          "name": "to",
          "type": "address"
        },
        {
          "indexed": true,
          "internalType": "uint256",
          "name": "tokenId",
          "type": "uint256"
        }
      ],
      "name": "Transfer",
      "type": "event"
    },
    {
      "inputs": [
        {
          "internalType": "address",
          "name": "to",
          "type": "address"
        },
        {
          "internalType": "uint256",
          "name": "tokenId",
          "type": "uint256"
        }
      ],
      "name": "approve",
      "outputs": [],
      "stateMutability": "nonpayable",
      "type": "function"
    },
    {
      "inputs": [
        {
          "internalType": "address",
          "name": "owner",
          "type": "address"
        }
      ],
      "name": "balanceOf",
      "outputs": [
        {
          "internalType": "uint256",
          "name": "",
          "type": "uint256"
        }
      ],
      "stateMutability": "view",
      "type": "function",
      "constant": true
    },
    {
      "inputs": [
        {
          "internalType": "uint256",
          "name": "tokenId",
          "type": "uint256"
        }
      ],
      "name": "getApproved",
      "outputs": [
        {
          "internalType": "address",
          "name": "",
          "type": "address"
        }
      ],
      "stateMutability": "view",
      "type": "function",
      "constant": true
    },
    {
      "inputs": [
        {
          "internalType": "address",
          "name": "owner",
          "type": "address"
        },
        {
          "internalType": "address",
          "name": "operator",
          "type": "address"
        }
      ],
      "name": "isApprovedForAll",
      "outputs": [
        {
          "internalType": "bool",
          "name": "",
          "type": "bool"
        }
      ],
      "stateMutability": "view",
      "type": "function",
      "constant": true
    },
    {
      "inputs": [],
      "name": "name",
      "outputs": [
        {
          "internalType": "string",
          "name": "",
          "type": "string"
        }
      ],
      "stateMutability": "view",
      "type": "function",
      "constant": true
    },
    {
      "inputs": [
        {
          "internalType": "uint256",
          "name": "tokenId",
          "type": "uint256"
        }
      ],
      "name": "ownerOf",
      "outputs": [
        {
          "internalType": "address",
          "name": "",
          "type": "address"
        }
      ],
      "stateMutability": "view",
      "type": "function",
      "constant": true
    },
    {
      "inputs": [
        {
          "internalType": "address",
          "name": "from",
          "type": "address"
        },
        {
          "internalType": "address",
          "name": "to",
          "type": "address"
        },
        {
          "internalType": "uint256",
          "name": "tokenId",
          "type": "uint256"
        }
      ],
      "name": "safeTransferFrom",
      "outputs": [],
      "stateMutability": "nonpayable",
      "type": "function"
    },
    {
      "inputs": [
        {
          "internalType": "address",
          "name": "from",
          "type": "address"
        },
        {
          "internalType": "address",
          "name": "to",
          "type": "address"
        },
        {
          "internalType": "uint256",
          "name": "tokenId",
          "type": "uint256"
        },
        {
          "internalType": "bytes",
          "name": "_data",
          "type": "bytes"
        }
      ],
      "name": "safeTransferFrom",
      "outputs": [],
      "stateMutability": "nonpayable",
      "type": "function"
    },
    {
      "inputs": [
        {
          "internalType": "address",
          "name": "operator",
          "type": "address"
        },
        {
          "internalType": "bool",
          "name": "approved",
          "type": "bool"
        }
      ],
      "name": "setApprovalForAll",
      "outputs": [],
      "stateMutability": "nonpayable",
      "type": "function"
    },
    {
      "inputs": [
        {
          "internalType": "bytes4",
          "name": "interfaceId",
          "type": "bytes4"
        }
      ],
      "name": "supportsInterface",
      "outputs": [
        {
          "internalType": "bool",
          "name": "",
          "type": "bool"
        }
      ],
      "stateMutability": "view",
      "type": "function",
      "constant": true
    },
    {
      "inputs": [],
      "name": "symbol",
      "outputs": [
        {
          "internalType": "string",
          "name": "",
          "type": "string"
        }
      ],
      "stateMutability": "view",
      "type": "function",
      "constant": true
    },
    {
      "inputs": [
        {
          "internalType": "address",
          "name": "from",
          "type": "address"
        },
        {
          "internalType": "address",
          "name": "to",
          "type": "address"
        },
        {
          "internalType": "uint256",
          "name": "tokenId",
          "type": "uint256"
        }
      ],
      "name": "transferFrom",
      "outputs": [],
      "stateMutability": "nonpayable",
      "type": "function"
    },
    {
      "inputs": [],
      "name": "claimNFT",
      "outputs": [],
      "stateMutability": "nonpayable",
      "type": "function"
    },
    {
      "inputs": [
        {
          "internalType": "uint256",
          "name": "token_id",
          "type": "uint256"
        }
      ],
      "name": "tokenURI",
      "outputs": [
        {
          "internalType": "string",
          "name": "",
          "type": "string"
        }
      ],
      "stateMutability": "view",
      "type": "function",
      "constant": true
    },
    {
      "inputs": [],
      "name": "totalSupply",
      "outputs": [
        {
          "internalType": "uint256",
          "name": "",
          "type": "uint256"
        }
      ],
      "stateMutability": "view",
      "type": "function",
      "constant": true
    }
  ],
  "bytecode": "0x608060405260ee6006553480156200001657600080fd5b506040805180820182526012815271249020b690293ab9b9b4b0902430b1b5b2b960711b6020808301918252835180850190945260118452704f6e6c7920436f6465204d61747465727360781b9084015281519192916200007a9160009162000099565b5080516200009090600190602084019062000099565b5050506200017c565b828054620000a7906200013f565b90600052602060002090601f016020900481019282620000cb576000855562000116565b82601f10620000e657805160ff191683800117855562000116565b8280016001018555821562000116579182015b8281111562000116578251825591602001919060010190620000f9565b506200012492915062000128565b5090565b5b8082111562000124576000815560010162000129565b6002810460018216806200015457607f821691505b602082108114156200017657634e487b7160e01b600052602260045260246000fd5b50919050565b611345806200018c6000396000f3fe608060405234801561001057600080fd5b50600436106100f55760003560e01c80636352211e11610097578063a22cb46511610066578063a22cb465146101de578063b88d4fde146101f1578063c87b56dd14610204578063e985e9c514610217576100f5565b80636352211e146101a8578063672756ad146101bb57806370a08231146101c357806395d89b41146101d6576100f5565b8063095ea7b3116100d3578063095ea7b31461015857806318160ddd1461016d57806323b872dd1461018257806342842e0e14610195576100f5565b806301ffc9a7146100fa57806306fdde0314610123578063081812fc14610138575b600080fd5b61010d610108366004610d0d565b61022a565b60405161011a9190610df9565b60405180910390f35b61012b610272565b60405161011a9190610e04565b61014b610146366004610d45565b610304565b60405161011a9190610da8565b61016b610166366004610ce4565b610350565b005b6101756103e8565b60405161011a9190611214565b61016b610190366004610ba3565b6103ee565b61016b6101a3366004610ba3565b610426565b61014b6101b6366004610d45565b610441565b61016b610476565b6101756101d1366004610b50565b6104f0565b61012b610534565b61016b6101ec366004610caa565b610543565b61016b6101ff366004610bde565b610611565b61012b610212366004610d45565b610650565b61010d610225366004610b71565b610671565b60006001600160e01b031982166380ac58cd60e01b148061025b57506001600160e01b03198216635b5e139f60e01b145b8061026a575061026a8261069f565b90505b919050565b6060600080546102819061124c565b80601f01602080910402602001604051908101604052809291908181526020018280546102ad9061124c565b80156102fa5780601f106102cf576101008083540402835291602001916102fa565b820191906000526020600020905b8154815290600101906020018083116102dd57829003601f168201915b5050505050905090565b600061030f826106b8565b6103345760405162461bcd60e51b815260040161032b906110c3565b60405180910390fd5b506000908152600460205260409020546001600160a01b031690565b600061035b82610441565b9050806001600160a01b0316836001600160a01b0316141561038f5760405162461bcd60e51b815260040161032b90611158565b806001600160a01b03166103a16106d5565b6001600160a01b031614806103bd57506103bd816102256106d5565b6103d95760405162461bcd60e51b815260040161032b90610f9e565b6103e383836106d9565b505050565b60065490565b6103ff6103f96106d5565b82610747565b61041b5760405162461bcd60e51b815260040161032b90611199565b6103e38383836107cc565b6103e383838360405180602001604052806000815250610611565b6000818152600260205260408120546001600160a01b03168061026a5760405162461bcd60e51b815260040161032b90611045565b61047f336104f0565b1561049c5760405162461bcd60e51b815260040161032b906111ea565b6006546104a960076108f9565b6104b490600161121d565b106104d15760405162461bcd60e51b815260040161032b90610e17565b6104db60076108fd565b6104ee336104e960076108f9565b610906565b565b60006001600160a01b0382166105185760405162461bcd60e51b815260040161032b90610ffb565b506001600160a01b031660009081526003602052604090205490565b6060600180546102819061124c565b61054b6106d5565b6001600160a01b0316826001600160a01b0316141561057c5760405162461bcd60e51b815260040161032b90610f1b565b80600560006105896106d5565b6001600160a01b03908116825260208083019390935260409182016000908120918716808252919093529120805460ff1916921515929092179091556105cd6106d5565b6001600160a01b03167f17307eab39ab6107e8899845ad3d59bd9653f200f220920489ca2b5937696c31836040516106059190610df9565b60405180910390a35050565b61062261061c6106d5565b83610747565b61063e5760405162461bcd60e51b815260040161032b90611199565b61064a848484846109e5565b50505050565b60606040518060800160405280604381526020016112cd6043913992915050565b6001600160a01b03918216600090815260056020908152604080832093909416825291909152205460ff1690565b6001600160e01b031981166301ffc9a760e01b14919050565b6000908152600260205260409020546001600160a01b0316151590565b3390565b600081815260046020526040902080546001600160a01b0319166001600160a01b038416908117909155819061070e82610441565b6001600160a01b03167f8c5be1e5ebec7d5bd14f71427d1e84f3dd0314c0f7b2291e5b200ac8c7c3b92560405160405180910390a45050565b6000610752826106b8565b61076e5760405162461bcd60e51b815260040161032b90610f52565b600061077983610441565b9050806001600160a01b0316846001600160a01b031614806107b45750836001600160a01b03166107a984610304565b6001600160a01b0316145b806107c457506107c48185610671565b949350505050565b826001600160a01b03166107df82610441565b6001600160a01b0316146108055760405162461bcd60e51b815260040161032b9061110f565b6001600160a01b03821661082b5760405162461bcd60e51b815260040161032b90610ed7565b6108368383836103e3565b6108416000826106d9565b6001600160a01b038316600090815260036020526040812080546001929061086a908490611235565b90915550506001600160a01b038216600090815260036020526040812080546001929061089890849061121d565b909155505060008181526002602052604080822080546001600160a01b0319166001600160a01b0386811691821790925591518493918716917fddf252ad1be2c89b69c2b068fc378daa952ba7f163c4a11628f55a4df523b3ef91a4505050565b5490565b80546001019055565b6001600160a01b03821661092c5760405162461bcd60e51b815260040161032b9061108e565b610935816106b8565b156109525760405162461bcd60e51b815260040161032b90610ea0565b61095e600083836103e3565b6001600160a01b038216600090815260036020526040812080546001929061098790849061121d565b909155505060008181526002602052604080822080546001600160a01b0319166001600160a01b03861690811790915590518392907fddf252ad1be2c89b69c2b068fc378daa952ba7f163c4a11628f55a4df523b3ef908290a45050565b6109f08484846107cc565b6109fc84848484610a18565b61064a5760405162461bcd60e51b815260040161032b90610e4e565b6000610a2c846001600160a01b0316610b33565b15610b2857836001600160a01b031663150b7a02610a486106d5565b8786866040518563ffffffff1660e01b8152600401610a6a9493929190610dbc565b602060405180830381600087803b158015610a8457600080fd5b505af1925050508015610ab4575060408051601f3d908101601f19168201909252610ab191810190610d29565b60015b610b0e573d808015610ae2576040519150601f19603f3d011682016040523d82523d6000602084013e610ae7565b606091505b508051610b065760405162461bcd60e51b815260040161032b90610e4e565b805181602001fd5b6001600160e01b031916630a85bd0160e11b1490506107c4565b506001949350505050565b3b151590565b80356001600160a01b038116811461026d57600080fd5b600060208284031215610b61578081fd5b610b6a82610b39565b9392505050565b60008060408385031215610b83578081fd5b610b8c83610b39565b9150610b9a60208401610b39565b90509250929050565b600080600060608486031215610bb7578081fd5b610bc084610b39565b9250610bce60208501610b39565b9150604084013590509250925092565b60008060008060808587031215610bf3578081fd5b610bfc85610b39565b93506020610c0b818701610b39565b935060408601359250606086013567ffffffffffffffff80821115610c2e578384fd5b818801915088601f830112610c41578384fd5b813581811115610c5357610c5361129d565b604051601f8201601f1916810185018381118282101715610c7657610c7661129d565b60405281815283820185018b1015610c8c578586fd5b81858501868301379081019093019390935250939692955090935050565b60008060408385031215610cbc578182fd5b610cc583610b39565b915060208301358015158114610cd9578182fd5b809150509250929050565b60008060408385031215610cf6578182fd5b610cff83610b39565b946020939093013593505050565b600060208284031215610d1e578081fd5b8135610b6a816112b3565b600060208284031215610d3a578081fd5b8151610b6a816112b3565b600060208284031215610d56578081fd5b5035919050565b60008151808452815b81811015610d8257602081850181015186830182015201610d66565b81811115610d935782602083870101525b50601f01601f19169290920160200192915050565b6001600160a01b0391909116815260200190565b6001600160a01b0385811682528416602082015260408101839052608060608201819052600090610def90830184610d5d565b9695505050505050565b901515815260200190565b600060208252610b6a6020830184610d5d565b6020808252601c908201527f4e6f7420656e6f75676874204e4654206c65667420746f206d696e7400000000604082015260600190565b60208082526032908201527f4552433732313a207472616e7366657220746f206e6f6e20455243373231526560408201527131b2b4bb32b91034b6b83632b6b2b73a32b960711b606082015260800190565b6020808252601c908201527f4552433732313a20746f6b656e20616c7265616479206d696e74656400000000604082015260600190565b60208082526024908201527f4552433732313a207472616e7366657220746f20746865207a65726f206164646040820152637265737360e01b606082015260800190565b60208082526019908201527f4552433732313a20617070726f766520746f2063616c6c657200000000000000604082015260600190565b6020808252602c908201527f4552433732313a206f70657261746f7220717565727920666f72206e6f6e657860408201526b34b9ba32b73a103a37b5b2b760a11b606082015260800190565b60208082526038908201527f4552433732313a20617070726f76652063616c6c6572206973206e6f74206f7760408201527f6e6572206e6f7220617070726f76656420666f7220616c6c0000000000000000606082015260800190565b6020808252602a908201527f4552433732313a2062616c616e636520717565727920666f7220746865207a65604082015269726f206164647265737360b01b606082015260800190565b60208082526029908201527f4552433732313a206f776e657220717565727920666f72206e6f6e657869737460408201526832b73a103a37b5b2b760b91b606082015260800190565b6020808252818101527f4552433732313a206d696e7420746f20746865207a65726f2061646472657373604082015260600190565b6020808252602c908201527f4552433732313a20617070726f76656420717565727920666f72206e6f6e657860408201526b34b9ba32b73a103a37b5b2b760a11b606082015260800190565b60208082526029908201527f4552433732313a207472616e73666572206f6620746f6b656e2074686174206960408201526839903737ba1037bbb760b91b606082015260800190565b60208082526021908201527f4552433732313a20617070726f76616c20746f2063757272656e74206f776e656040820152603960f91b606082015260800190565b60208082526031908201527f4552433732313a207472616e736665722063616c6c6572206973206e6f74206f6040820152701ddb995c881b9bdc88185c1c1c9bdd9959607a1b606082015260800190565b60208082526010908201526f13585e080c481391950bddd85b1b195d60821b604082015260600190565b90815260200190565b6000821982111561123057611230611287565b500190565b60008282101561124757611247611287565b500390565b60028104600182168061126057607f821691505b6020821081141561128157634e487b7160e01b600052602260045260246000fd5b50919050565b634e487b7160e01b600052601160045260246000fd5b634e487b7160e01b600052604160045260246000fd5b6001600160e01b0319811681146112c957600080fd5b5056fe68747470733a2f2f697066732e696f2f697066732f516d5954666736457036564534756a437078625177734168456d6e505a64374c574d3777436752463246745a3371a26469706673582212206d80497dbcf632cf3f629719abf6a8906a9db1ce2b0f7cf566c1d1dffc0c4f4c64736f6c63430008000033",
  "immutableReferences": {},
  "source": "pragma solidity ^0.8.0;\n\nimport \"@openzeppelin/contracts/token/ERC721/ERC721.sol\";\nimport \"@openzeppelin/contracts/utils/Counters.sol\";\n\n\ncontract IAmRussiaHacker is ERC721 {\n\n    uint256 MAX_ID = 238;\n    using Counters for Counters.Counter;\n    Counters.Counter private _tokenIds;\n\n    constructor() ERC721(\"I Am Russia Hacker\", \"Only Code Matters\") {\n        }\n\n    function claimNFT() external {\n        require(balanceOf(msg.sender) == 0, \"Max 1 NFT/wallet\");\n        require(_tokenIds.current()+1 < MAX_ID, \"Not enought NFT left to mint\");\n        _tokenIds.increment();\n        _mint(msg.sender, _tokenIds.current());\n    }\n\n    function tokenURI(uint256 token_id) public view override returns (string memory) {\n        return \"https://ipfs.io/ipfs/QmYTfg6Ep6VE4ujCpxbQwsAhEmnPZd7LWM7wCgRF2FtZ3q\";\n    }\n\n    function totalSupply() external view returns (uint256) {\n      return MAX_ID;\n    }\n\n\n}\n",
  "sourcePath": "/home/drgorilla/Documents/solidity/IRussiaHacker/contracts/IAmRussiaHacker.sol",
  "compiler": {
    "name": "solc",
    "version": "0.8.0+commit.c7dfd78e.Emscripten.clang"
  },
  "schemaVersion": "3.4.0",
  "updatedAt": "2021-05-25T21:00:14.732Z",
  "networkType": "ethereum",
  "devdoc": {
    "kind": "dev",
    "methods": {
      "approve(address,uint256)": {
        "details": "See {IERC721-approve}."
      },
      "balanceOf(address)": {
        "details": "See {IERC721-balanceOf}."
      },
      "getApproved(uint256)": {
        "details": "See {IERC721-getApproved}."
      },
      "isApprovedForAll(address,address)": {
        "details": "See {IERC721-isApprovedForAll}."
      },
      "name()": {
        "details": "See {IERC721Metadata-name}."
      },
      "ownerOf(uint256)": {
        "details": "See {IERC721-ownerOf}."
      },
      "safeTransferFrom(address,address,uint256)": {
        "details": "See {IERC721-safeTransferFrom}."
      },
      "safeTransferFrom(address,address,uint256,bytes)": {
        "details": "See {IERC721-safeTransferFrom}."
      },
      "setApprovalForAll(address,bool)": {
        "details": "See {IERC721-setApprovalForAll}."
      },
      "supportsInterface(bytes4)": {
        "details": "See {IERC165-supportsInterface}."
      },
      "symbol()": {
        "details": "See {IERC721Metadata-symbol}."
      },
      "transferFrom(address,address,uint256)": {
        "details": "See {IERC721-transferFrom}."
      }
    },
    "version": 1
  },
  "userdoc": {
    "kind": "user",
    "methods": {},
    "version": 1
  }
}